:1000000046C053C019C151C050C04FC04EC04DC0B2
:100010004CC04BC07F417F00007F79494F41497FF1
:100020000F087E4F49797F497903017F7F497F4FD0
:10003000497F7F097F7F49367F41637F413E7F490A
:10004000417F0901417F417F027F7F017E7F0976E9
:100050003F403F003600000000A81F2001DA028D5B
:1000600014AFA1C80C0011110A120D1516161616A0
:10007000FF1616FF0A0D0D130E0505151616FF01C6
:100080001316120E0C160D0E0C000D0E13FF11247C
:100090001FBECFE9CDBF20E0A0E6B0E001C01D92B9
:1000A000A436B207E1F7D8D080C1AACF282F269571
:1000B00026952695263008F426E090916000682F5A
:1000C00070E030E0891750F44091600050E0461B2A
:1000D000570B81E04217530754F008C0809160002D
:1000E000681B710981E0621773070CF080E00895C6
:1000F000BA9AB998BA98089598E0BA9A87FDBA98CA
:10010000B998B99A880F9150C1F7BA98B998B99A25
:100110000895BA9AB99A88E7EFCFCF93C82FF9DF3D
:1001200080E0EADF82E2E8DF8C2FE6DF81E08C0FFF
:10013000E3DF80E0E1DF80E1DFDF8C2F806BDCDF5D
:10014000CF91D6CF0F931F93CF93DF93162F9C01A0
:10015000207F332744E0220F331F4A95E1F78F7049
:100160009927822B932B9C01220F331F220F331FC1
:10017000822B932B837393739C01220F331F822B4B
:10018000932B85759575EC01CC0FDD1FC82BD92BF2
:100190000D2F112331F08C2FAFDF802FADDF1150E9
:1001A000F8CFDF91CF911F910F910895CF93982FA2
:1001B000990FC82FC90FEC2FF0E0EC5EFF4F849130
:1001C00062E090E0BFDFE1E0EC0FF0E0EC5EFF4FBB
:1001D000849163E090E0B6DFCE5FEC2FF0E0EC5E60
:1001E000FF4F849162E090E0ADDF80E085DF80E04A
:1001F00083DF80E081DF80E0CF917ECFCF93C82F77
:1002000088DF80E479DF8C2F82958F70CFDF8C2F91
:100210008F70CCDFCF916CCFCF93DF93EC0179DF80
:1002200080E46ADFFE0184918F3F19F0BFDF2196E1
:10023000F9CFDF91CF915CCF1F920F920FB60F9243
:1002400011248F9382B78093600012BE8F910F901C
:100250000FBE0F901F901895BB98AB9A1FBC83E000
:1002600083BF789487B3897F87BB88B3897F88BB36
:1002700050DF80E041DFC9E5D0E0FE0184913CDF42
:100280002196F0E0C236DF07C1F732DF80E045DFBC
:1002900040DF80E431DFC0E080E02EDFC150E1F7D5
:1002A00027DF82E03ADF35DF80E426DF80E024DFED
:1002B000C150E1F71DDF81E030DF8FE790E0ACDF78
:1002C0008BB780628BBFB39BFECFB399FECFB39B3E
:1002D000FECF89EAEBDE8823B1F3B399FECF84E544
:1002E000E5DE882381F3C0E2F694E794D794C794BF
:1002F000B39BFECF8BE0DADE882329F3B399FECFE0
:1003000080E2D4DE882319F06894F7F804C08BE00B
:10031000CDDE8823C1F2C15039F7B39BFECF8BE00D
:10032000C5DE882381F2A701662777278F2D9927BD
:10033000AA27BB27242F30E0820F931F8F3F910500
:1003400014F2409361008C2D90E09C012D0D311D25
:100350002F3F310529F4909363008093620004C01D
:10036000D0926300C09262008BB78F7D8BBF80E01C
:10037000D4DE84E790E050DFC0916200D09163004A
:10038000CF3FD10521F018F08D2F38DF03C081E772
:1003900090E042DF8C2F32DF82E0BFDE84E690E027
:0E03A0003BDF809161002ADF8BCFF894FFCF06
:00000001FF
