:1000000048C055C054C153C029C351C050C04FC08F
:100010004EC04DC04CC04BC04AC049C048C07F41D3
:100020007F00007F79494F41497F0F087E4F497912
:100030007F497903017F7F497F4F497F7F097F7F18
:1000400049367F41637F413E7F49417F09014F48E7
:100050007F7F027F7F017E7F0976080808003600D7
:1000600000000016161616FF120E0C16FF050A11D8
:1000700005FF130C1405FF05001210FFA81F200137
:10008000DA028D14AFA1C80C110D15FF0A0D13155E
:10009000FF0011241FBECFEDCDBF20E0A0E6B0E0F1
:1000A00001C01D92A836B207E1F723D36BC3A8CFD6
:1000B000BA9AB998BA98089598E0BA9A87FDBA980A
:1000C000B998B99A880F9150C1F7BA98B998B99A66
:1000D0000895BA9AB99A88E7EFCF0F931F93CF93F9
:1000E000DF93162F9C01207F332744E0220F331F1C
:1000F0004A95E1F78F709927822B932B9C01220F51
:10010000331F220F331F822B932B837393739C0116
:10011000220F331F822B932B85759575EC01CC0F25
:10012000DD1FC82BD92B0D2F112331F08C2FC4DFED
:10013000802FC2DF1150F8CFDF91CF911F910F9127
:100140000895CF93982F990FC82FC90FEC2FF0E087
:10015000E25EFF4F849162E090E0BFDFE1E0EC0FF0
:10016000F0E0E25EFF4F849163E090E0B6DFCE5FA7
:10017000EC2FF0E0E25EFF4F849162E090E0ADDFB3
:1001800080E09ADF80E098DF80E096DF80E0CF912A
:1001900093CFCF93DF93C82FD62F9BDF80E08CDFE8
:1001A00082E28ADF8D2F88DF81E08D0F85DF8C2F43
:1001B0008F7082DF8C2F82958F7080617DDF8D2F15
:1001C000806B7ADFDF91CF9173CFCF93C82F862FCB
:1001D00062E0DFDF7EDF80E46FDF8C2FB2DFCF9164
:1001E00067CFCF93DF93EC018CE5D3DF72DF80E440
:1001F00063DF8D2F82958F70A4DF8D2F8F70A1DF2D
:10020000CE0124E0969587952A95E1F78F7099DFC6
:100210008C2F8F7096DFDF91CF914ACFCF93DF93F2
:10022000EC01862F642FB5DF54DF80E445DFFE014B
:1002300084918F3F19F085DF2196F9CFDF91CF911F
:1002400037CFEF92FF920F931F93CF93C82F7B016D
:100250008A01843098F490E09C01220F331F220F12
:10026000331F820F931F40E060E08D599F4FD6DF10
:1002700069E086E1AADF62E186E10DC040E060E06E
:1002800087E790E0CBDF8C2F6AE070D2C92F69E05E
:100290009CDF62E18C2F99DF60E0C701A2DF62E0A2
:1002A000C801CF911F910F91FF90EF909ACF1F92AD
:1002B0000F920FB60F9211240F931F932F933F931A
:1002C0004F935F936F937F938F939F93AF93BF935E
:1002D000EF93FF938FB508B602FE06C01092670039
:1002E00081E080936600A3C12091660096B3022E40
:1002F000000C330B93FB442740F950E024173507DB
:1003000009F095C190E02091670021119CC08E30CA
:10031000910520F09C012D50310904C02DE030E002
:10032000281B390B25303105A8F483E08093670042
:1003300080E090E2A0E0B0E08093620090936300E0
:10034000A0936400B09365008CE0809361001092EC
:1003500066008BC08C31910520F09C012B51310936
:1003600004C02BE130E0281B390B25303105C0F4E7
:1003700083E08093670080E090E2A0E0B0E08093AB
:10038000620090936300A0936400B09365008BE0DB
:10039000809361001092660081E08093600047C105
:1003A0008632910520F09C012552310904C025E2D6
:1003B00030E0281B390B25303105A8F42091660068
:1003C000213089F484E080936700109262001092DB
:1003D000630010926400109265001092610089B76A
:1003E000846089BF24C18F34910520F09C012E5474
:1003F000310904C02EE430E0281B390B22313105CD
:1004000010F482E010C08D38910518F08C589109D5
:1004100006C02CE830E0A901481B590BCA014297DD
:1004200008F005C181E0809367001092620010928D
:10043000630010926400109265008FEF809361005A
:1004400010926600F4C020916700233009F072C05A
:100450003091660021E0311120E02093660044973E
:1004600038F480916000882319F010926000DFC09A
:1004700081E080936000809166002091610040914E
:100480006200509163006091640070916500082ED5
:10049000000C990BAA0BBB0B04C0880F991FAA1F55
:1004A000BB1F2A95D2F7842B952BA62BB72B8093B5
:1004B000620090936300A0936400B0936500809104
:1004C0006100811133C08091620090916300A0911E
:1004D0006400B091650040916200509163006091AA
:1004E000640070916500009162001091630020919A
:1004F00064003091650066E0B695A795979587955D
:100500006A95D1F780959095807499274F735527F8
:10051000482B592B76E036952795179507957A95B0
:10052000D1F7B8016F71772783E08BDE809161008E
:1005300081502AC020916700243049F50F9708F1B7
:1005400020916100409162005091630060916400CD
:100550007091650081E090E0A0E0B0E004C0880FF9
:10056000991FAA1FBB1F2A95D2F7842B952BA62B68
:10057000B72B8093620090936300A0936400B093C4
:100580006500809161008F5F8093610050C0209171
:100590006700213029F020916700223009F047C020
:1005A000429728F18091610087FD21C02091610070
:1005B0004091620050916300609164007091650009
:1005C00081E090E0A0E0B0E004C0880F991FAA1F6E
:1005D000BB1F2A95D2F7842B952BA62BB72B809384
:1005E000620090936300A0936400B09365008091D3
:1005F00061008F5F80936100809161008032B9F467
:1006000040916200509163006091640070916500B8
:1006100000916200109163002091640030916500A8
:1006200080916700AB0166277727B8010ADE1FBCFF
:1006300088B7846088BFFF91EF91BF91AF919F9180
:100640008F917F916F915F914F913F912F911F916A
:100650000F910F900FBE0F901F9018951F920F9241
:100660000FB60F9211240F931F932F933F934F9325
:100670005F936F937F938F939F93AF93BF93EF930A
:10068000FF9300916200109163002091640030910B
:1006900065008091620090916300A0916400B09128
:1006A0006500E0916100A8014F775527BC01CD019D
:1006B00027E096958795779567952A95D1F78E2FA0
:1006C000C0DD89B78B7F89BF8AEF8FBDFF91EF9126
:1006D000BF91AF919F918F917F916F915F914F915A
:1006E0003F912F911F910F910F900FBE0F901F9070
:1006F000189587B3897F87BB88B3897F88BBE9DC7E
:1007000080E0DADCCCE7D0E0FE018491D5DC2196F4
:10071000F0E0C538DF07C1F7CBDC60E080E039DD11
:10072000D8DC80E4C9DCC0E080E0C6DCC150E1F781
:10073000BFDC62E080E02DDDCCDC80E4BDDC80E06D
:10074000BBDCC150E1F7B4DC87E080BF88E085BB4B
:1007500080E28BBF789440E062E38CE890E05EDD5D
:1007600042E062E387E890E059DDFFCF991B79E032
:1007700004C0991F961708F0961B881F7A95C9F731
:0807800080950895F894FFCF65
:00000001FF
