:100000004DC05AC085C158C05DC356C055C054C00C
:1000100053C052C051C050C04FC04EC04DC07F41B0
:100020007F00007F79494F41497F0F087E4F497912
:100030007F497903017F7F497F4F497F7F097F7F18
:1000400049367F41637F413E7F49417F09014F48E7
:100050007F7F027F7F017E7F0976080808003600D7
:1000600000000016161616FF120E0C16FF050A11D8
:1000700005FF130C1405FF05001210FF0C110D15E0
:10008000FF0A0D1315FFA81F2001DA028D14AFA17E
:10009000C80113160D0E0C000D0E13FF11241FBE08
:1000A000CFEDCDBF20E0A0E6B0E001C01D92A936A3
:1000B000B207E1F752D37FC3A3CFBA9AB998BA98DF
:1000C000089598E0BA9A87FDBA98B998B99A880FB6
:1000D0009150C1F7BA98B998B99A0895BA9AB99A4D
:1000E00088E7EFCF0F931F93CF93DF93162F9C01D9
:1000F000207F332744E0220F331F4A95E1F78F70AA
:100100009927822B932B9C01220F331F220F331F21
:10011000822B932B837393739C01220F331F822BAB
:10012000932B85759575EC01CC0FDD1FC82BD92B52
:100130000D2F112331F08C2FC4DF802FC2DF11501F
:10014000F8CFDF91CF911F910F910895CF93982F02
:10015000990FC82FC90FEC2FF0E0E25EFF4F84919A
:1001600062E090E0BFDFE1E0EC0FF0E0E25EFF4F25
:10017000849163E090E0B6DFCE5FEC2FF0E0E25ECA
:10018000FF4F849162E090E0ADDF80E09ADF80E095
:1001900098DF80E096DF80E0CF9193CFCF93DF931D
:1001A000C82FD62F9BDF80E08CDF82E28ADF8D2F85
:1001B00088DF81E08D0F85DF8C2F8F7082DF8C2FA1
:1001C00082958F7080617DDF8D2F806B7ADFDF916C
:1001D000CF9173CFCF93C82F862F62E0DFDF7EDF12
:1001E00080E46FDF8C2FB2DFCF9167CFCF93DF93A7
:1001F000EC018CE5D3DF72DF80E463DF8D2F829525
:100200008F70A4DF8D2F8F70A1DFCE0124E0969533
:1002100087952A95E1F78F7099DF8C2F8F7096DF85
:10022000DF91CF914ACFCF93DF93EC01862F642FDC
:10023000B5DF54DF80E445DFFE0184918F3F19F084
:1002400085DF2196F9CFDF91CF9137CFCF9360E053
:1002500080E0A4DF43DF80E434DFC0E080E031DF12
:10026000C150E1F72ADF62E080E098DF37DF80E409
:1002700028DF80E026DFC150E1F7CF911ECFEF925B
:10028000FF920F931F93CF93C82F7B018A01809118
:10029000600081110EC081E080936000D7DF40E0F4
:1002A00062E381E890E0BFDF42E062E38CE790E048
:1002B000BADFC430A0F48C2F90E09C01220F331FD2
:1002C000220F331F820F931F40E060E08D599F4F34
:1002D000AADF69E086E17EDF62E186E10DC040E0F1
:1002E00060E087E790E09FDF8C2F6AE058D2C92F4B
:1002F00069E070DF62E18C2F6DDF60E0C70176DFBF
:1003000062E0C801CF911F910F91FF90EF906ECFE7
:100310001F920F920FB60F9211240F931F932F93DA
:100320003F934F935F936F937F938F939F93AF937D
:10033000BF93EF93FF938FB508B602FE06C01092ED
:10034000680081E08093670048C12091670096B300
:10035000022E000C330B93FB442740F950E0241786
:10036000350709F03AC190E02091680021116EC074
:100370008E30910520F09C012D50310904C02DE0F4
:1003800030E0281B390B25303105A8F483E0809339
:10039000680080E090E2A0E0B0E08093630090937A
:1003A0006400A0936500B09366008CE080936200C7
:1003B000109267005DC08C31910520F09C012B519B
:1003C000310904C02BE130E0281B390B2530310501
:1003D000C0F483E08093680080E090E2A0E0B0E0A9
:1003E0008093630090936400A0936500B0936600CF
:1003F0008BE0809362001092670081E0809361003F
:10040000ECC08632910520F09C012552310904C0D0
:1004100025E230E0281B390B2530310508F0C4C037
:1004200020916700213009F0BFC084E0809368000C
:1004300010926300109264001092650010926600A2
:100440001092620089B7846089BFC7C0209168009C
:10045000233009F072C03091670021E0311120E0B3
:1004600020936700449738F480916100882319F045
:1004700010926100B2C081E08093610080916700BA
:10048000209162004091630050916400609165008A
:1004900070916600082E000C990BAA0BBB0B04C0D0
:1004A000880F991FAA1FBB1F2A95D2F7842B952B63
:1004B000A62BB72B8093630090936400A0936500F4
:1004C000B093660080916200811133C08091630017
:1004D00090916400A0916500B09166004091630026
:1004E0005091640060916500709166000091630016
:1004F00010916400209165003091660066E0B69529
:10050000A795979587956A95D1F780959095807472
:1005100099274F735527482B592B76E03695279509
:10052000179507957A95D1F7B8016F71772783E012
:10053000A6DE8091620081502AC02091680024309C
:1005400049F50F9708F120916200409163005091A6
:100550006400609165007091660081E090E0A0E029
:10056000B0E004C0880F991FAA1FBB1F2A95D2F7BD
:10057000842B952BA62BB72B80936300909364005C
:10058000A0936500B0936600809162008F5F8093B6
:10059000620023C020916800213009F44AC02091F4
:1005A00068002230D1F445C08F34910568F19C0178
:1005B0002E5431092231310560F582E080936800C4
:1005C0001092630010926400109265001092660011
:1005D0008FEF80936200109267001FBC88B7846021
:1005E00088BFFF91EF91BF91AF919F918F917F91C4
:1005F0006F915F914F913F912F911F910F910F90AC
:100600000FBE0F901F9018952EE430E0281B390B79
:10061000D1CF8D38910518F08C58910906C02CE87F
:1006200030E0A901481B590BCA014297B0F681E09E
:10063000C5CF429720F08091620087FF21C0809152
:1006400062008F5F8093620080916200803229F6A1
:100650004091630050916400609165007091660064
:100660000091630010916400209165003091660054
:1006700080916800AB0166277727B80100DEADCF17
:100680002091620040916300509164006091650088
:100690007091660081E090E0A0E0B0E004C0880FB7
:1006A000991FAA1FBB1F2A95D2F7842B952BA62B27
:1006B000B72B8093630090936400A0936500B09380
:1006C0006600BDCF1F920F920FB60F9211240F93A9
:1006D0001F932F933F934F935F936F937F938F93CA
:1006E0009F93AF93BF93EF93FF930091630010919B
:1006F00064002091650030916600809163009091C4
:100700006400A0916500B0916600E0916200A801CC
:100710004F775527BC01CD0127E0969587957795B2
:1007200067952A95D1F78E2FAADD89B78B7F89BF70
:100730008AEF8FBDFF91EF91BF91AF919F918F9104
:100740007F916F915F914F913F912F911F910F91E9
:100750000F900FBE0F901F90189587B3897F87BBAE
:1007600088B3897F88BBBADC80E0ABDCC6E8D0E028
:10077000FE018491A6DC2196F0E0CF38DF07C1F7B7
:100780009CDC64DD87E080BF88E085BB80E28BBFB6
:10079000789441E062E181E990E045DDFFCF991B6B
:1007A00079E004C0991F961708F0961B881F7A9568
:0A07B000C9F780950895F894FFCF73
:00000001FF
